:100000000C9434000C9451000C9451000C94510049
:100010000C9451000C9451000C9451000C9451001C
:100020000C9451000C9451000C9451000C9451000C
:100030000C9451000C9451000C9451000C945100FC
:100040000C9490000C9451000C9451000C945100AD
:100050000C9451000C9451000C9451000C945100DC
:100060000C9451000C94510011241FBECFEFD8E026
:10007000DEBFCDBF11E0A0E0B1E0EAE8F4E002C0ED
:1000800005900D92A431B107D9F721E0A4E1B1E0C8
:1000900001C01D92A732B207E1F70E94DA000C946A
:1000A00043020C9400003FB7F894809115019091A1
:1000B0001601A0911701B091180126B5A89B05C0A3
:1000C0002F3F19F00196A11DB11D3FBFBA2FA92FD7
:1000D000982F8827BC01CD01620F711D811D911DD4
:1000E00042E0660F771F881F991F4A95D1F7089540
:1000F000CF92DF92EF92FF920E9453006B017C013E
:100100000E9453006C197D098E099F09683E734057
:1001100081059105A8F3FF90EF90DF90CF900895AF
:100120001F920F920FB60F9211242F933F938F932C
:100130009F93AF93BF938091190190911A01A09161
:100140001B01B0911C013091140123E0230F2D37C6
:1001500058F50196A11DB11D20931401809319013A
:1001600090931A01A0931B01B0931C01809115017B
:1001700090911601A0911701B09118010196A11D4F
:10018000B11D8093150190931601A0931701B093B0
:100190001801BF91AF919F918F913F912F910F9037
:1001A0000FBE0F901F90189526E8230F0296A11DF1
:1001B000B11DD2CF789484B5826084BD84B581604E
:1001C00084BD85B5826085BD85B5816085BD809122
:1001D0006E00816080936E0010928100809181009A
:1001E0008260809381008091810081608093810092
:1001F000809180008160809380008091B100846054
:100200008093B1008091B00081608093B0008091B4
:100210007A00846080937A0080917A008260809373
:100220007A0080917A00816080937A0080917A00D0
:10023000806880937A001092C1008FEF8AB98FE3B3
:1002400084B985B966246394712C90E0892E90E07E
:10025000992E10E000E08FB7F894C0901901D0906B
:100260001A01E0901B01F0901C018FBF0E947800E2
:10027000D0E0C0E02FB7F8948091190190911A0155
:10028000A0911B01B0911C012FBF8C199D09AE09D3
:10029000BF098C329140A105B10508F091C0A09032
:1002A0002501B0902601A0912301B0912401409135
:1002B00021015091220120911F0130912001609174
:1002C0001D0170911E0185B195B18095892B85B96D
:1002D000E5B1C3010C2E01C0880F0A94EAF780959E
:1002E0008E2385B9C8018C1B9D0B97FD03C08A30F6
:1002F000910514F089E090E06115710559F4805082
:100300009F4FFC0180818BB90E9478002196C370B9
:10031000DD27B0CFFB013197399738F4265F3E4F88
:10032000F901208120930801EACFFB013A97EA35D1
:10033000F10568F4265F3E4FF90120812093080102
:10034000465F5E4FFA01208120930701D8CF2B0131
:10035000F4E64F1A5108E4E84E16E3E05E0690F426
:10036000265F3E4FF901208120930801465F5E4FD2
:10037000FA01208120930701A65FBE4F2C912093A4
:100380000601BDCF685E73406832734208F0BCCF8F
:10039000265F3E4FF901208120930801465F5E4FA2
:1003A000FA01208120930701A65FBE4F2C91209374
:1003B0000601F501E65FFE4F2081209305019FCFE6
:1003C0000F5F1F4F0E30110509F045CF80911D01C1
:1003D00090911E018031F7E29F07C4F4019690933B
:1003E0001E0180931D0180911F0190912001893091
:1003F00091058CF401969093200180931F01811444
:10040000910409F426CF0E94000023CF10921E0110
:1004100010921D01E8CF1092200110921F018091CF
:100420002101909122018930910534F40196909335
:10043000220180932101E3CF109222011092210129
:1004400080912301909124018930910534F4019623
:100450009093240180932301D2CF10922401109213
:10046000230180912501909126018930910534F472
:1004700001969093260180932501C1CF1092260109
:0A04800010922501BCCFF894FFCFC5
:10048A00767938385C3F3F3F3F003F065B4F666DE9
:04049A007D077F6FEC
:107E0000112484B714BE81FFF0D085E080938100F7
:107E100082E08093C00088E18093C10086E0809377
:107E2000C20080E18093C4008EE0C9D0259A86E02C
:107E300020E33CEF91E0309385002093840096BBD3
:107E4000B09BFECF1D9AA8958150A9F7CC24DD24C4
:107E500088248394B5E0AB2EA1E19A2EF3E0BF2EE7
:107E6000A2D0813461F49FD0082FAFD0023811F036
:107E7000013811F484E001C083E08DD089C08234E0
:107E800011F484E103C0853419F485E0A6D080C0E4
:107E9000853579F488D0E82EFF2485D0082F10E0AE
:107EA000102F00270E291F29000F111F8ED06801E7
:107EB0006FC0863521F484E090D080E0DECF843638
:107EC00009F040C070D06FD0082F6DD080E0C81688
:107ED00080E7D80618F4F601B7BEE895C0E0D1E017
:107EE00062D089930C17E1F7F0E0CF16F0E7DF06D8
:107EF00018F0F601B7BEE89568D007B600FCFDCFD4
:107F0000A601A0E0B1E02C9130E011968C91119780
:107F100090E0982F8827822B932B1296FA010C0160
:107F200087BEE89511244E5F5F4FF1E0A038BF0790
:107F300051F7F601A7BEE89507B600FCFDCF97BE46
:107F4000E89526C08437B1F42ED02DD0F82E2BD052
:107F50003CD0F601EF2C8F010F5F1F4F84911BD097
:107F6000EA94F801C1F70894C11CD11CFA94CF0C13
:107F7000D11C0EC0853739F428D08EE10CD085E9AC
:107F80000AD08FE07ACF813511F488E018D01DD067
:107F900080E101D065CF982F8091C00085FFFCCF94
:107FA0009093C60008958091C00087FFFCCF809118
:107FB000C00084FD01C0A8958091C6000895E0E648
:107FC000F0E098E1908380830895EDDF803219F02E
:107FD00088E0F5DFFFCF84E1DECF1F93182FE3DFCA
:107FE0001150E9F7F2DF1F91089580E0E8DFEE27F6
:047FF000FF270994CA
:027FFE00040479
:0400000300007E007B
:00000001FF
